:100000000207DFFFFFFFFFFFFFFFFFE119D128C25B
:10001000B37F287E00F18FD2B322FFE1F6E52F7087
:100020001DE53075F00A84FFE53075F00A84E5249B
:10003000B1B0FBE52475F00A8485F00BF1A4E52F3F
:100040007002410614B42900400241069000562572
:10005000E0500205837301A801B001B801C001C7D7
:1000600001F101F301F5214E210121032105214E6A
:100070002107212721342141214E4106215B2161A5
:10008000218A21AF21B321D3410641064106410611
:1000900001F7211421162118214E211A01D301E163
:1000A0004106410621E521F685302C85242D801C52
:1000B00085272C85212D801485322C852E2D800CB2
:1000C000E4F534F53121AFE4F52CF52DB1A1FBE5D4
:1000D0002D21DCA202E433F50B7B0A7D057F06E1CE
:1000E000A485292CB1C685F00B7B0A7D057F07E12D
:1000F000A4803421342141B1E4E523B1DCE523219E
:10010000DC8024802F2141B1A1FBB1EB85F00B7580
:100110000C06C13A8011801C8027B1A1FBB1EB8590
:10012000F00B750C07C13AB1A1FBB1EB85F00B7573
:100130000C01C13AB1A1FBB1EB85F00B750C02C10A
:100140003AB1A1FBB1EB85F00B750C03C13AB1A13B
:10015000FBB1EB85F00B750C04C13AB1CDE52E2156
:10016000DC300620C206152EE52EB4FF17752E3B97
:100170001532E532B4FF0DE4F532F52E753501D2B6
:100180008E752F16B1CDE52E21DCE535D3940040D8
:1001900011E5359407500BD28E30060DC206053599
:1001A0008007E4F52FF52BC28EB1CDE52E802DB161
:1001B000F28029300619C2060531E531B43C10E45D
:1001C000F5310534E534B46406753463752F17B121
:1001D000F28009B1E4ADF0B1C6FBE52C75F00A84FC
:1001E00085F00BE1A4A202E433F50B750C047B0A45
:1001F0007D057F06C13AB1C685F00B750C047B0AFC
:100200007D057F07D13A22D2B530B50261A37F01C7
:100210007E00F18F30B50261A3E52FB42A004002C1
:10022000619C90022825E073417C41834185418C8B
:100230004193419A41AA41B441BE41C641CD41D703
:1002400041E141E941EB61196123612E613A619C11
:10025000615B6150615B616261676173619C619C1C
:10026000619C619C41C841EF41FE610B61136115C6
:1002700041A2615B619C619C6189618D752B010567
:100280002F619C800E752B03052F619C752B040537
:100290002F619C752B02052F619C752B01752F24F6
:1002A000619C752B01752F25619CD12094185002FB
:1002B000619C41F7B1B7D1155002619C6106D10B29
:1002C0005002619C6132613AE4F523619CD1209433
:1002D000185002619C8020B1B7D1155002619C80FA
:1002E00025D10B5002619C6132613AB201619CD10F
:1002F0002094185002619CB1C685F02C619CB1B766
:10030000D1155002619C752C14619CD10B50026177
:100310009C801F8025B205619CD1209464407D742F
:100320009C6198B1B775F00AA42FF52C806ED10BA3
:10033000406A74C4252DF52D8062B1EBE5F004759B
:10034000F00A84AFF0B1EB75F00AA42FF52D804CC4
:10035000852C32852D2E752F158041E4F52FF52B38
:10036000803AE4F52F8035752F18E4F534F531F532
:100370002A8029052CE52CB46422E4F52C052DE512
:100380002DB46418E4F52D8013B202800F052CE51E
:100390002CC3940A400674F6252CF52C20B50411C4
:1003A0001D80F922D2B430B40281E97F017E00F1D0
:1003B0008F30B40281E9C28E75250B7526B9E52F01
:1003C00014B42900400281E29003D225E0500205D6
:1003D000837381248129818781B081C6812E8132F6
:1003E0008136813A814D8151815581598163818C5A
:1003F000819081948198819881A681AB818481BC10
:1004000081C1818481E281E281E281E28148816E61
:1004100081728176817A818481D081D581E281E285
:10042000818481DA752F0681E2752F0A81E2052F1A
:1004300081E2052F81E2052F81E2852C30852D2474
:10044000E4F523752F1E81E2E4F52381DE052F817B
:10045000E2052F81E2052F81E2852C27852D2105DC
:100460002F807F752F1F85332C85282D8074052FB5
:100470008070052F806C052F8068852C33852D2892
:10048000052F805EE48057752F0F8056052F805210
:10049000052F804E052F804A852C32852D2E752FF5
:1004A00014E4F535803C752F158037752F14803294
:1004B000752F17E4F534F531F52A8026752F18804D
:1004C00021752F17801C752F19E4F52CF52D80123E
:1004D000752F28800D752F298008852C29E4F52F8C
:1004E000F52B20B404111D80F922E527B53006E56F
:1004F000216524600AE533B53017E528B5241220BC
:10050000010330050E20000BE4F525F526D200800E
:1005100002C200E524702EE530C394074027E53081
:10052000D39416502030021F20031CE530940C4059
:1005300008E53024F4F5368003853036E4F537F5E8
:1005400038D2038002C20330001FC3E52694D0E5F1
:100550002594075014E5399405500CD28E0526E5F4
:1005600026700605258002C28E300334E53675F00C
:100570001BA4FFAEF0C3E5389FE5379E5014E53964
:100580009402500CD28E0538E5387006053780028B
:10059000C28E20000BC3E5389FE5379E4002C28E15
:1005A00022E52C75F00A84FFE52C75F00A84E52D10
:1005B000ADF075F00A8422E52C75F00A84E5F004AC
:1005C00075F00A84AFF0E52C75F00A8422E53275E7
:1005D000F00A84FFE53275F00A84E52EADF075F07F
:1005E0000A84FB22E52D75F00A84FFE52D75F00ADB
:1005F0008422E53475F00A84FFE53475F00A84AD91
:10060000F0E53175F00A84FBE53122740A252DF5F9
:100610002DC3943C2275F00AA42FF52CC394182204
:10062000740A252CF52CC322EF9007EB93F590224A
:10063000758C3CE52924BAF58A228F088D098B0A2E
:10064000D1D0E50CB40109E539C39405500680000A
:10065000AF08F1C5E50CB40209E539C394055006AD
:100660008000AF09F1D2E50CB40309E539C3940564
:1006700050068000AF0AF1B8E50CB40409E539C3AF
:10068000940550068000AF0B110DE50C6406702632
:10069000E522D394015005300102D28EE522D39495
:1006A0000150047F0180027F00C3EF648094855075
:1006B00005200102C28EE50CB40714E522B4010541
:1006C000300502D28EE522B40105200502C28E2239
:1006D000E52F7011E539C394055005759001802B05
:1006E0007590FE8026E52BB401067590FE12071268
:1006F000E52BB40203759001E52BB403067590BE9B
:10070000120712E52BB404097590DE7F287E00F1F4
:100710008F227F287E00F18F22C0E0C0D0D130052B
:1007200022E52264027032F522D2040539E53964EB
:100730000A7026C28ED2B7F539D2060523E523B456
:100740003C177523000524E524B43C0D75240005F1
:1007500030E530B41803753000D0D0D0E0327529C0
:100760000575300C752706753316C28EF17AD28C5A
:10077000111D510771A491EA80F6758911D1307568
:100780008DFE758BCAD2AFD2A9D2ABE4F52222D3AB
:10079000EF9400EE9400400B7D13DDFEEF1F70EF31
:1007A0001E80EC228D098B0AF1C5AF09F1D2AF0A88
:1007B000F1B8AF0B110DC1D0D128C2B27F287E0095
:1007C000F18FD2B222D128C2B07F287E00F18FD221
:1007D000B022D128C2B17F287E00F18FD2B1227819
:1007E0007FE4F6D8FD75813902075EFD25BBAF6752
:1007F000CFDFA5FFEF03758DFE758BCAB2B732FF51
:00000001FF
